{
  "contractName": "Marketplace",
  "abi": [
    {
      "inputs": [],
      "stateMutability": "nonpayable",
      "type": "constructor"
    },
    {
      "anonymous": false,
      "inputs": [
        {
          "indexed": false,
          "internalType": "address",
          "name": "nftContract",
          "type": "address"
        },
        {
          "indexed": false,
          "internalType": "uint256",
          "name": "tokenId",
          "type": "uint256"
        },
        {
          "indexed": false,
          "internalType": "address",
          "name": "seller",
          "type": "address"
        },
        {
          "indexed": false,
          "internalType": "address",
          "name": "owner",
          "type": "address"
        },
        {
          "indexed": false,
          "internalType": "uint256",
          "name": "price",
          "type": "uint256"
        }
      ],
      "name": "NFTListed",
      "type": "event"
    },
    {
      "anonymous": false,
      "inputs": [
        {
          "indexed": false,
          "internalType": "address",
          "name": "nftContract",
          "type": "address"
        },
        {
          "indexed": false,
          "internalType": "uint256",
          "name": "tokenId",
          "type": "uint256"
        },
        {
          "indexed": false,
          "internalType": "address",
          "name": "seller",
          "type": "address"
        },
        {
          "indexed": false,
          "internalType": "address",
          "name": "owner",
          "type": "address"
        },
        {
          "indexed": false,
          "internalType": "uint256",
          "name": "price",
          "type": "uint256"
        }
      ],
      "name": "NFTSold",
      "type": "event"
    },
    {
      "inputs": [],
      "name": "LISTING_FEE",
      "outputs": [
        {
          "internalType": "uint256",
          "name": "",
          "type": "uint256"
        }
      ],
      "stateMutability": "view",
      "type": "function",
      "constant": true
    },
    {
      "inputs": [
        {
          "internalType": "address",
          "name": "_nftContract",
          "type": "address"
        },
        {
          "internalType": "uint256",
          "name": "_tokenId",
          "type": "uint256"
        },
        {
          "internalType": "uint256",
          "name": "_price",
          "type": "uint256"
        }
      ],
      "name": "listNFT",
      "outputs": [],
      "stateMutability": "payable",
      "type": "function",
      "payable": true
    },
    {
      "inputs": [
        {
          "internalType": "address",
          "name": "_nftContract",
          "type": "address"
        },
        {
          "internalType": "uint256",
          "name": "_tokenId",
          "type": "uint256"
        }
      ],
      "name": "buyNFT",
      "outputs": [],
      "stateMutability": "payable",
      "type": "function",
      "payable": true
    },
    {
      "inputs": [
        {
          "internalType": "address",
          "name": "_nftContract",
          "type": "address"
        },
        {
          "internalType": "uint256",
          "name": "_tokenId",
          "type": "uint256"
        },
        {
          "internalType": "uint256",
          "name": "_price",
          "type": "uint256"
        }
      ],
      "name": "resellNFT",
      "outputs": [],
      "stateMutability": "payable",
      "type": "function",
      "payable": true
    },
    {
      "inputs": [],
      "name": "getListingFee",
      "outputs": [
        {
          "internalType": "uint256",
          "name": "",
          "type": "uint256"
        }
      ],
      "stateMutability": "view",
      "type": "function",
      "constant": true
    },
    {
      "inputs": [],
      "name": "getListedNFTs",
      "outputs": [
        {
          "components": [
            {
              "internalType": "address",
              "name": "nftContract",
              "type": "address"
            },
            {
              "internalType": "uint256",
              "name": "tokenId",
              "type": "uint256"
            },
            {
              "internalType": "address payable",
              "name": "seller",
              "type": "address"
            },
            {
              "internalType": "address payable",
              "name": "owner",
              "type": "address"
            },
            {
              "internalType": "uint256",
              "name": "price",
              "type": "uint256"
            },
            {
              "internalType": "bool",
              "name": "listed",
              "type": "bool"
            }
          ],
          "internalType": "struct Marketplace.NFT[]",
          "name": "",
          "type": "tuple[]"
        }
      ],
      "stateMutability": "view",
      "type": "function",
      "constant": true
    },
    {
      "inputs": [],
      "name": "getMyNFTs",
      "outputs": [
        {
          "components": [
            {
              "internalType": "address",
              "name": "nftContract",
              "type": "address"
            },
            {
              "internalType": "uint256",
              "name": "tokenId",
              "type": "uint256"
            },
            {
              "internalType": "address payable",
              "name": "seller",
              "type": "address"
            },
            {
              "internalType": "address payable",
              "name": "owner",
              "type": "address"
            },
            {
              "internalType": "uint256",
              "name": "price",
              "type": "uint256"
            },
            {
              "internalType": "bool",
              "name": "listed",
              "type": "bool"
            }
          ],
          "internalType": "struct Marketplace.NFT[]",
          "name": "",
          "type": "tuple[]"
        }
      ],
      "stateMutability": "view",
      "type": "function",
      "constant": true
    },
    {
      "inputs": [],
      "name": "getMyListedNFTs",
      "outputs": [
        {
          "components": [
            {
              "internalType": "address",
              "name": "nftContract",
              "type": "address"
            },
            {
              "internalType": "uint256",
              "name": "tokenId",
              "type": "uint256"
            },
            {
              "internalType": "address payable",
              "name": "seller",
              "type": "address"
            },
            {
              "internalType": "address payable",
              "name": "owner",
              "type": "address"
            },
            {
              "internalType": "uint256",
              "name": "price",
              "type": "uint256"
            },
            {
              "internalType": "bool",
              "name": "listed",
              "type": "bool"
            }
          ],
          "internalType": "struct Marketplace.NFT[]",
          "name": "",
          "type": "tuple[]"
        }
      ],
      "stateMutability": "view",
      "type": "function",
      "constant": true
    }
  ],
  "bytecode": "0x608060405266038d7ea4c6800060035534801561001b57600080fd5b50600160008190555033600460006101000a81548173ffffffffffffffffffffffffffffffffffffffff021916908373ffffffffffffffffffffffffffffffffffffffff160217905550611d85806100746000396000f3fe60806040526004361061007b5760003560e01c8063629cb2e41161004e578063629cb2e41461011d578063a82ba76f14610148578063ad05f1b414610164578063b8fe6abe146101805761007b565b8063012386f01461008057806304935694146100ab5780631cd27232146100c75780632b86ae38146100f2575b600080fd5b34801561008c57600080fd5b506100956101ab565b6040516100a29190611649565b60405180910390f35b6100c560048036038101906100c091906116c8565b610413565b005b3480156100d357600080fd5b506100dc610670565b6040516100e99190611649565b60405180910390f35b3480156100fe57600080fd5b50610107610a13565b604051610114919061172a565b60405180910390f35b34801561012957600080fd5b50610132610a19565b60405161013f9190611649565b60405180910390f35b610162600480360381019061015d9190611745565b610d83565b005b61017e600480360381019061017991906116c8565b61105b565b005b34801561018c57600080fd5b50610195611385565b6040516101a2919061172a565b60405180910390f35b606060006101b9600261138f565b905060006101c7600161138f565b826101d291906117b4565b905060008167ffffffffffffffff8111156101f0576101ef6117e8565b5b60405190808252806020026020018201604052801561022957816020015b61021661140f565b81526020019060019003908161020e5790505b5090506000805b8481101561040857600560006001836102499190611817565b815260200190815260200160002060050160009054906101000a900460ff16156103f5576005600060018361027e9190611817565b81526020019081526020016000206040518060c00160405290816000820160009054906101000a900473ffffffffffffffffffffffffffffffffffffffff1673ffffffffffffffffffffffffffffffffffffffff1673ffffffffffffffffffffffffffffffffffffffff168152602001600182015481526020016002820160009054906101000a900473ffffffffffffffffffffffffffffffffffffffff1673ffffffffffffffffffffffffffffffffffffffff1673ffffffffffffffffffffffffffffffffffffffff1681526020016003820160009054906101000a900473ffffffffffffffffffffffffffffffffffffffff1673ffffffffffffffffffffffffffffffffffffffff1673ffffffffffffffffffffffffffffffffffffffff168152602001600482015481526020016005820160009054906101000a900460ff1615151515815250508383815181106103db576103da61184b565b5b602002602001018190525081806103f19061187a565b9250505b80806104009061187a565b915050610230565b508194505050505090565b600260005403610458576040517f08c379a000000000000000000000000000000000000000000000000000000000815260040161044f9061191f565b60405180910390fd5b6002600081905550600081116104a3576040517f08c379a000000000000000000000000000000000000000000000000000000000815260040161049a9061198b565b60405180910390fd5b60035434146104e7576040517f08c379a00000000000000000000000000000000000000000000000000000000081526004016104de90611a1d565b60405180910390fd5b8273ffffffffffffffffffffffffffffffffffffffff166342842e0e3330856040518463ffffffff1660e01b815260040161052493929190611a4c565b600060405180830381600087803b15801561053e57600080fd5b505af1158015610552573d6000803e3d6000fd5b505050506000600560008481526020019081526020016000209050338160020160006101000a81548173ffffffffffffffffffffffffffffffffffffffff021916908373ffffffffffffffffffffffffffffffffffffffff160217905550308160030160006101000a81548173ffffffffffffffffffffffffffffffffffffffff021916908373ffffffffffffffffffffffffffffffffffffffff16021790555060018160050160006101000a81548160ff021916908315150217905550818160040181905550610623600161139d565b7fa0c6c0d02d86fdacecbaa5fdf5894bab204e31a778250474108540733a9b8d19848433308660405161065a959493929190611a83565b60405180910390a1506001600081905550505050565b6060600061067e600261138f565b90506000805b8281101561075c573373ffffffffffffffffffffffffffffffffffffffff16600560006001846106b49190611817565b815260200190815260200160002060020160009054906101000a900473ffffffffffffffffffffffffffffffffffffffff1673ffffffffffffffffffffffffffffffffffffffff161480156107355750600560006001836107159190611817565b815260200190815260200160002060050160009054906101000a900460ff165b156107495781806107459061187a565b9250505b80806107549061187a565b915050610684565b5060008167ffffffffffffffff811115610779576107786117e8565b5b6040519080825280602002602001820160405280156107b257816020015b61079f61140f565b8152602001906001900390816107975790505b5090506000805b84811015610a08573373ffffffffffffffffffffffffffffffffffffffff16600560006001846107e99190611817565b815260200190815260200160002060020160009054906101000a900473ffffffffffffffffffffffffffffffffffffffff1673ffffffffffffffffffffffffffffffffffffffff1614801561086a57506005600060018361084a9190611817565b815260200190815260200160002060050160009054906101000a900460ff165b156109f557600560006001836108809190611817565b81526020019081526020016000206040518060c00160405290816000820160009054906101000a900473ffffffffffffffffffffffffffffffffffffffff1673ffffffffffffffffffffffffffffffffffffffff1673ffffffffffffffffffffffffffffffffffffffff168152602001600182015481526020016002820160009054906101000a900473ffffffffffffffffffffffffffffffffffffffff1673ffffffffffffffffffffffffffffffffffffffff1673ffffffffffffffffffffffffffffffffffffffff1681526020016003820160009054906101000a900473ffffffffffffffffffffffffffffffffffffffff1673ffffffffffffffffffffffffffffffffffffffff1673ffffffffffffffffffffffffffffffffffffffff168152602001600482015481526020016005820160009054906101000a900460ff1615151515815250508383806109d69061187a565b9450815181106109e9576109e861184b565b5b60200260200101819052505b8080610a009061187a565b9150506107b9565b508194505050505090565b60035481565b60606000610a27600261138f565b90506000805b82811015610acc573373ffffffffffffffffffffffffffffffffffffffff1660056000600184610a5d9190611817565b815260200190815260200160002060030160009054906101000a900473ffffffffffffffffffffffffffffffffffffffff1673ffffffffffffffffffffffffffffffffffffffff1603610ab9578180610ab59061187a565b9250505b8080610ac49061187a565b915050610a2d565b5060008167ffffffffffffffff811115610ae957610ae86117e8565b5b604051908082528060200260200182016040528015610b2257816020015b610b0f61140f565b815260200190600190039081610b075790505b5090506000805b83811015610d78573373ffffffffffffffffffffffffffffffffffffffff1660056000600184610b599190611817565b815260200190815260200160002060020160009054906101000a900473ffffffffffffffffffffffffffffffffffffffff1673ffffffffffffffffffffffffffffffffffffffff16148015610bda575060056000600183610bba9190611817565b815260200190815260200160002060050160009054906101000a900460ff165b15610d655760056000600183610bf09190611817565b81526020019081526020016000206040518060c00160405290816000820160009054906101000a900473ffffffffffffffffffffffffffffffffffffffff1673ffffffffffffffffffffffffffffffffffffffff1673ffffffffffffffffffffffffffffffffffffffff168152602001600182015481526020016002820160009054906101000a900473ffffffffffffffffffffffffffffffffffffffff1673ffffffffffffffffffffffffffffffffffffffff1673ffffffffffffffffffffffffffffffffffffffff1681526020016003820160009054906101000a900473ffffffffffffffffffffffffffffffffffffffff1673ffffffffffffffffffffffffffffffffffffffff1673ffffffffffffffffffffffffffffffffffffffff168152602001600482015481526020016005820160009054906101000a900460ff161515151581525050838380610d469061187a565b945081518110610d5957610d5861184b565b5b60200260200101819052505b8080610d709061187a565b915050610b29565b508194505050505090565b600260005403610dc8576040517f08c379a0000000000000000000000000000000000000000000000000000000008152600401610dbf9061191f565b60405180910390fd5b600260008190555060006005600083815260200190815260200160002090508060040154341015610e2e576040517f08c379a0000000000000000000000000000000000000000000000000000000008152600401610e2590611b48565b60405180910390fd5b60003390508160020160009054906101000a900473ffffffffffffffffffffffffffffffffffffffff1673ffffffffffffffffffffffffffffffffffffffff166108fc349081150290604051600060405180830381858888f19350505050158015610e9d573d6000803e3d6000fd5b508373ffffffffffffffffffffffffffffffffffffffff166342842e0e308385600101546040518463ffffffff1660e01b8152600401610edf93929190611bc7565b600060405180830381600087803b158015610ef957600080fd5b505af1158015610f0d573d6000803e3d6000fd5b50505050600460009054906101000a900473ffffffffffffffffffffffffffffffffffffffff1673ffffffffffffffffffffffffffffffffffffffff166108fc6003549081150290604051600060405180830381858888f19350505050158015610f7b573d6000803e3d6000fd5b50808260030160006101000a81548173ffffffffffffffffffffffffffffffffffffffff021916908373ffffffffffffffffffffffffffffffffffffffff16021790555060008260050160006101000a81548160ff021916908315150217905550610fe660016113f9565b7f16f1dbd97e6bf646d429ed186cce832f1f7fd9907814293b83181e9970ab7bd28483600101548460020160009054906101000a900473ffffffffffffffffffffffffffffffffffffffff168434604051611045959493929190611bfe565b60405180910390a1505060016000819055505050565b6002600054036110a0576040517f08c379a00000000000000000000000000000000000000000000000000000000081526004016110979061191f565b60405180910390fd5b6002600081905550600081116110eb576040517f08c379a00000000000000000000000000000000000000000000000000000000081526004016110e29061198b565b60405180910390fd5b600354341461112f576040517f08c379a000000000000000000000000000000000000000000000000000000000815260040161112690611cc3565b60405180910390fd5b8273ffffffffffffffffffffffffffffffffffffffff166342842e0e3330856040518463ffffffff1660e01b815260040161116c93929190611a4c565b600060405180830381600087803b15801561118657600080fd5b505af115801561119a573d6000803e3d6000fd5b505050506111a860026113f9565b6040518060c001604052808473ffffffffffffffffffffffffffffffffffffffff1681526020018381526020013373ffffffffffffffffffffffffffffffffffffffff1681526020013073ffffffffffffffffffffffffffffffffffffffff168152602001828152602001600115158152506005600084815260200190815260200160002060008201518160000160006101000a81548173ffffffffffffffffffffffffffffffffffffffff021916908373ffffffffffffffffffffffffffffffffffffffff1602179055506020820151816001015560408201518160020160006101000a81548173ffffffffffffffffffffffffffffffffffffffff021916908373ffffffffffffffffffffffffffffffffffffffff16021790555060608201518160030160006101000a81548173ffffffffffffffffffffffffffffffffffffffff021916908373ffffffffffffffffffffffffffffffffffffffff1602179055506080820151816004015560a08201518160050160006101000a81548160ff0219169083151502179055509050507fa0c6c0d02d86fdacecbaa5fdf5894bab204e31a778250474108540733a9b8d198383333085604051611370959493929190611bfe565b60405180910390a16001600081905550505050565b6000600354905090565b600081600001549050919050565b600081600001549050600081116113e9576040517f08c379a00000000000000000000000000000000000000000000000000000000081526004016113e090611d2f565b60405180910390fd5b6001810382600001819055505050565b6001816000016000828254019250508190555050565b6040518060c00160405280600073ffffffffffffffffffffffffffffffffffffffff16815260200160008152602001600073ffffffffffffffffffffffffffffffffffffffff168152602001600073ffffffffffffffffffffffffffffffffffffffff168152602001600081526020016000151581525090565b600081519050919050565b600082825260208201905092915050565b6000819050602082019050919050565b600073ffffffffffffffffffffffffffffffffffffffff82169050919050565b60006114e0826114b5565b9050919050565b6114f0816114d5565b82525050565b6000819050919050565b611509816114f6565b82525050565b600061151a826114b5565b9050919050565b61152a8161150f565b82525050565b60008115159050919050565b61154581611530565b82525050565b60c08201600082015161156160008501826114e7565b5060208201516115746020850182611500565b5060408201516115876040850182611521565b50606082015161159a6060850182611521565b5060808201516115ad6080850182611500565b5060a08201516115c060a085018261153c565b50505050565b60006115d2838361154b565b60c08301905092915050565b6000602082019050919050565b60006115f682611489565b6116008185611494565b935061160b836114a5565b8060005b8381101561163c57815161162388826115c6565b975061162e836115de565b92505060018101905061160f565b5085935050505092915050565b6000602082019050818103600083015261166381846115eb565b905092915050565b600080fd5b611679816114d5565b811461168457600080fd5b50565b60008135905061169681611670565b92915050565b6116a5816114f6565b81146116b057600080fd5b50565b6000813590506116c28161169c565b92915050565b6000806000606084860312156116e1576116e061166b565b5b60006116ef86828701611687565b9350506020611700868287016116b3565b9250506040611711868287016116b3565b9150509250925092565b611724816114f6565b82525050565b600060208201905061173f600083018461171b565b92915050565b6000806040838503121561175c5761175b61166b565b5b600061176a85828601611687565b925050602061177b858286016116b3565b9150509250929050565b7f4e487b7100000000000000000000000000000000000000000000000000000000600052601160045260246000fd5b60006117bf826114f6565b91506117ca836114f6565b92508282039050818111156117e2576117e1611785565b5b92915050565b7f4e487b7100000000000000000000000000000000000000000000000000000000600052604160045260246000fd5b6000611822826114f6565b915061182d836114f6565b925082820190508082111561184557611844611785565b5b92915050565b7f4e487b7100000000000000000000000000000000000000000000000000000000600052603260045260246000fd5b6000611885826114f6565b91507fffffffffffffffffffffffffffffffffffffffffffffffffffffffffffffffff82036118b7576118b6611785565b5b600182019050919050565b600082825260208201905092915050565b7f5265656e7472616e637947756172643a207265656e7472616e742063616c6c00600082015250565b6000611909601f836118c2565b9150611914826118d3565b602082019050919050565b60006020820190508181036000830152611938816118fc565b9050919050565b7f5072696365206d7573742062652061746c656173742031207765690000000000600082015250565b6000611975601b836118c2565b91506119808261193f565b602082019050919050565b600060208201905081810360008301526119a481611968565b9050919050565b7f4e6f7420656e6f75676820657468657220666f72206c697374696e672066656560008201527f2e00000000000000000000000000000000000000000000000000000000000000602082015250565b6000611a076021836118c2565b9150611a12826119ab565b604082019050919050565b60006020820190508181036000830152611a36816119fa565b9050919050565b611a46816114d5565b82525050565b6000606082019050611a616000830186611a3d565b611a6e6020830185611a3d565b611a7b604083018461171b565b949350505050565b600060a082019050611a986000830188611a3d565b611aa5602083018761171b565b611ab26040830186611a3d565b611abf6060830185611a3d565b611acc608083018461171b565b9695505050505050565b7f4e6f7420656e6f7567687420657468657220746f20636f7665722061736b696e60008201527f6720707269636500000000000000000000000000000000000000000000000000602082015250565b6000611b326027836118c2565b9150611b3d82611ad6565b604082019050919050565b60006020820190508181036000830152611b6181611b25565b9050919050565b6000819050919050565b6000611b8d611b88611b83846114b5565b611b68565b6114b5565b9050919050565b6000611b9f82611b72565b9050919050565b6000611bb182611b94565b9050919050565b611bc181611ba6565b82525050565b6000606082019050611bdc6000830186611a3d565b611be96020830185611bb8565b611bf6604083018461171b565b949350505050565b600060a082019050611c136000830188611a3d565b611c20602083018761171b565b611c2d6040830186611bb8565b611c3a6060830185611bb8565b611c47608083018461171b565b9695505050505050565b7f4e6f7420656e6f7567687420657468657220666f72206c697374696e6720666560008201527f6500000000000000000000000000000000000000000000000000000000000000602082015250565b6000611cad6021836118c2565b9150611cb882611c51565b604082019050919050565b60006020820190508181036000830152611cdc81611ca0565b9050919050565b7f436f756e7465723a2064656372656d656e74206f766572666c6f770000000000600082015250565b6000611d19601b836118c2565b9150611d2482611ce3565b602082019050919050565b60006020820190508181036000830152611d4881611d0c565b905091905056fea26469706673582212204d6cc47af089a3c8c845a2f127932672eba4b679378c7e4519ff5d60bbcb030c64736f6c63430008110033",
  "immutableReferences": {},
  "source": "//SPDX-License-Identifier: MIT\npragma solidity >0.4.0 <0.9.0;\n\nimport \"@openzeppelin/contracts/utils/Counters.sol\";\nimport \"@openzeppelin/contracts/token/ERC721/ERC721.sol\";\nimport \"@openzeppelin/contracts/security/ReentrancyGuard.sol\";\n\ncontract Marketplace is ReentrancyGuard {\n    using Counters for Counters.Counter; // attach every function from library Counters to type Counters.Counter\n    Counters.Counter private _nftsSold;\n    Counters.Counter private _nftsCount;\n\n    uint256 public LISTING_FEE = 0.001 ether;\n    address payable private _marketOwner;\n    mapping(uint256 => NFT) private _idToNFT;\n\n    // NFT structure with instance variables\n    struct NFT {\n        address nftContract;\n        uint256 tokenId;\n        address payable seller;\n        address payable owner;\n        uint256 price;\n        bool listed;\n    }\n\n    event NFTListed(\n        address nftContract,\n        uint256 tokenId,\n        address seller,\n        address owner,\n        uint256 price\n    );\n\n    event NFTSold(\n        address nftContract,\n        uint256 tokenId,\n        address seller,\n        address owner,\n        uint256 price\n    );\n\n    constructor() {\n        _marketOwner = payable(msg.sender);\n    }\n\n    /**\n    @notice Explain to an end user what this does\n    @dev Explain to a developer any extra details\n    @param _nftContract a parameter just like in doxygen (must be followed by parameter name)\n    @param _tokenId a\n    @param _price price for the NFT\n    */\n    function listNFT(\n        address _nftContract,\n        uint256 _tokenId,\n        uint256 _price\n    ) public payable nonReentrant {\n        require(_price > 0, \"Price must be atleast 1 wei\");\n        require(msg.value == LISTING_FEE, \"Not enought ether for listing fee\");\n        IERC721(_nftContract).safeTransferFrom(\n            msg.sender,\n            address(this),\n            _tokenId\n        );\n\n        _nftsCount.increment();\n        _idToNFT[_tokenId] = NFT(\n            _nftContract,\n            _tokenId,\n            payable(msg.sender),\n            payable(address(this)),\n            _price,\n            true\n        );\n        emit NFTListed(\n            _nftContract,\n            _tokenId,\n            payable(msg.sender),\n            payable(address(this)),\n            _price\n        );\n    }\n\n    //buy an NFT\n    function buyNFT(address _nftContract, uint256 _tokenId)\n        public\n        payable\n        nonReentrant\n    {\n        NFT storage nft = _idToNFT[_tokenId];\n        require(\n            msg.value >= nft.price,\n            \"Not enought ether to cover asking price\"\n        );\n        address payable buyer = payable(msg.sender);\n        payable(nft.seller).transfer(msg.value);\n        IERC721(_nftContract).safeTransferFrom(\n            address(this),\n            buyer,\n            nft.tokenId\n        );\n        _marketOwner.transfer(LISTING_FEE);\n        nft.owner = buyer;\n        nft.listed = false;\n\n        _nftsSold.increment();\n        emit NFTSold(_nftContract, nft.tokenId, nft.seller, buyer, msg.value);\n    }\n\n    //Resell an NFT purchased from the marketplace\n    function resellNFT(\n        address _nftContract,\n        uint256 _tokenId,\n        uint256 _price\n    ) public payable nonReentrant {\n        require(_price > 0, \"Price must be atleast 1 wei\");\n        require(msg.value == LISTING_FEE, \"Not enough ether for listing fee.\");\n        IERC721(_nftContract).safeTransferFrom(\n            msg.sender,\n            address(this),\n            _tokenId\n        );\n\n        NFT storage nft = _idToNFT[_tokenId];\n        nft.seller = payable(msg.sender);\n        nft.owner = payable(address(this));\n        nft.listed = true;\n        nft.price = _price;\n\n        _nftsSold.decrement();\n        emit NFTListed(\n            _nftContract,\n            _tokenId,\n            msg.sender,\n            address(this),\n            _price\n        );\n    }\n\n    //get listing fee\n    function getListingFee() public view returns (uint256) {\n        return LISTING_FEE;\n    }\n\n    //get listed NFTs from the marketplace\n    function getListedNFTs() public view returns (NFT[] memory) {\n        uint256 nftCount = _nftsCount.current();\n        uint256 unsoldNFTsCount = nftCount - _nftsSold.current();\n\n        NFT[] memory nfts = new NFT[](unsoldNFTsCount);\n        uint256 nftsIndex = 0;\n        for (uint256 i = 0; i < nftCount; i++) {\n            if (_idToNFT[i + 1].listed) {\n                nfts[nftsIndex] = _idToNFT[i + 1];\n                nftsIndex++;\n            }\n        }\n        return nfts;\n    }\n\n    //get NFTs from users account\n    function getMyNFTs() public view returns (NFT[] memory) {\n        uint256 nftCount = _nftsCount.current();\n        uint256 myNFTCount = 0;\n        for (uint256 i = 0; i < nftCount; i++) {\n            if (_idToNFT[i + 1].owner == msg.sender) myNFTCount++;\n        }\n\n        NFT[] memory nfts = new NFT[](myNFTCount);\n        uint256 nftIndex = 0;\n        for (uint256 i = 0; i < myNFTCount; i++) {\n            if (_idToNFT[i + 1].seller == msg.sender && _idToNFT[i + 1].listed)\n                nfts[nftIndex++] = _idToNFT[i + 1];\n        }\n\n        return nfts;\n    }\n\n    //get NFT's listed on Marketplace from user's account\n\n    function getMyListedNFTs() public view returns (NFT[] memory) {\n        uint256 nftCount = _nftsCount.current();\n        uint256 myListedNFTCount = 0;\n        for (uint256 i = 0; i < nftCount; i++) {\n            if (_idToNFT[i + 1].seller == msg.sender && _idToNFT[i + 1].listed)\n                myListedNFTCount++;\n        }\n\n        NFT[] memory nfts = new NFT[](myListedNFTCount);\n\n        uint256 nftIndex = 0;\n\n        for (uint256 i = 0; i < nftCount; i++) {\n            if (_idToNFT[i + 1].seller == msg.sender && _idToNFT[i + 1].listed)\n                nfts[nftIndex++] = _idToNFT[i + 1];\n        }\n\n        return nfts;\n    }\n}\n",
  "sourcePath": "E:\\github\\digital_assets_marketplace\\contracts\\Marketplace.sol",
  "compiler": {
    "name": "solc",
    "version": "0.8.17+commit.8df45f5f.Emscripten.clang"
  },
  "schemaVersion": "3.4.10",
  "updatedAt": "2022-10-30T14:03:37.656Z",
  "networkType": "ethereum",
  "devdoc": {
    "kind": "dev",
    "methods": {
      "listNFT(address,uint256,uint256)": {
        "details": "Explain to a developer any extra details",
        "params": {
          "_nftContract": "a parameter just like in doxygen (must be followed by parameter name)",
          "_price": "price for the NFT",
          "_tokenId": "a"
        }
      }
    },
    "version": 1
  },
  "userdoc": {
    "kind": "user",
    "methods": {
      "listNFT(address,uint256,uint256)": {
        "notice": "Explain to an end user what this does"
      }
    },
    "version": 1
  }
}