{
  "contractName": "Marketplace",
  "abi": [
    {
      "inputs": [],
      "stateMutability": "nonpayable",
      "type": "constructor"
    },
    {
      "anonymous": false,
      "inputs": [
        {
          "indexed": false,
          "internalType": "address",
          "name": "nftContract",
          "type": "address"
        },
        {
          "indexed": false,
          "internalType": "uint256",
          "name": "tokenId",
          "type": "uint256"
        },
        {
          "indexed": false,
          "internalType": "address",
          "name": "seller",
          "type": "address"
        },
        {
          "indexed": false,
          "internalType": "address",
          "name": "owner",
          "type": "address"
        },
        {
          "indexed": false,
          "internalType": "uint256",
          "name": "price",
          "type": "uint256"
        }
      ],
      "name": "NFTListed",
      "type": "event"
    },
    {
      "anonymous": false,
      "inputs": [
        {
          "indexed": false,
          "internalType": "address",
          "name": "nftContract",
          "type": "address"
        },
        {
          "indexed": false,
          "internalType": "uint256",
          "name": "tokenId",
          "type": "uint256"
        },
        {
          "indexed": false,
          "internalType": "address",
          "name": "seller",
          "type": "address"
        },
        {
          "indexed": false,
          "internalType": "address",
          "name": "owner",
          "type": "address"
        },
        {
          "indexed": false,
          "internalType": "uint256",
          "name": "price",
          "type": "uint256"
        }
      ],
      "name": "NFTSold",
      "type": "event"
    },
    {
      "inputs": [],
      "name": "LISTING_FEE",
      "outputs": [
        {
          "internalType": "uint256",
          "name": "",
          "type": "uint256"
        }
      ],
      "stateMutability": "view",
      "type": "function",
      "constant": true
    },
    {
      "inputs": [
        {
          "internalType": "address",
          "name": "_nftContract",
          "type": "address"
        },
        {
          "internalType": "uint256",
          "name": "_tokenId",
          "type": "uint256"
        },
        {
          "internalType": "uint256",
          "name": "_price",
          "type": "uint256"
        }
      ],
      "name": "listNFT",
      "outputs": [],
      "stateMutability": "payable",
      "type": "function",
      "payable": true
    },
    {
      "inputs": [
        {
          "internalType": "address",
          "name": "_nftContract",
          "type": "address"
        },
        {
          "internalType": "uint256",
          "name": "_tokenId",
          "type": "uint256"
        }
      ],
      "name": "buyNFT",
      "outputs": [],
      "stateMutability": "payable",
      "type": "function",
      "payable": true
    },
    {
      "inputs": [
        {
          "internalType": "address",
          "name": "_nftContract",
          "type": "address"
        },
        {
          "internalType": "uint256",
          "name": "_tokenId",
          "type": "uint256"
        },
        {
          "internalType": "uint256",
          "name": "_price",
          "type": "uint256"
        }
      ],
      "name": "relistNFT",
      "outputs": [],
      "stateMutability": "payable",
      "type": "function",
      "payable": true
    },
    {
      "inputs": [],
      "name": "getListingFee",
      "outputs": [
        {
          "internalType": "uint256",
          "name": "",
          "type": "uint256"
        }
      ],
      "stateMutability": "view",
      "type": "function",
      "constant": true
    },
    {
      "inputs": [],
      "name": "getListedNFTs",
      "outputs": [
        {
          "components": [
            {
              "internalType": "address",
              "name": "nftContract",
              "type": "address"
            },
            {
              "internalType": "uint256",
              "name": "tokenId",
              "type": "uint256"
            },
            {
              "internalType": "address payable",
              "name": "seller",
              "type": "address"
            },
            {
              "internalType": "address payable",
              "name": "owner",
              "type": "address"
            },
            {
              "internalType": "uint256",
              "name": "price",
              "type": "uint256"
            },
            {
              "internalType": "bool",
              "name": "listed",
              "type": "bool"
            }
          ],
          "internalType": "struct Marketplace.NFT[]",
          "name": "",
          "type": "tuple[]"
        }
      ],
      "stateMutability": "view",
      "type": "function",
      "constant": true
    },
    {
      "inputs": [],
      "name": "getMyNFTs",
      "outputs": [
        {
          "components": [
            {
              "internalType": "address",
              "name": "nftContract",
              "type": "address"
            },
            {
              "internalType": "uint256",
              "name": "tokenId",
              "type": "uint256"
            },
            {
              "internalType": "address payable",
              "name": "seller",
              "type": "address"
            },
            {
              "internalType": "address payable",
              "name": "owner",
              "type": "address"
            },
            {
              "internalType": "uint256",
              "name": "price",
              "type": "uint256"
            },
            {
              "internalType": "bool",
              "name": "listed",
              "type": "bool"
            }
          ],
          "internalType": "struct Marketplace.NFT[]",
          "name": "",
          "type": "tuple[]"
        }
      ],
      "stateMutability": "view",
      "type": "function",
      "constant": true
    },
    {
      "inputs": [],
      "name": "getMyListedNFTs",
      "outputs": [
        {
          "components": [
            {
              "internalType": "address",
              "name": "nftContract",
              "type": "address"
            },
            {
              "internalType": "uint256",
              "name": "tokenId",
              "type": "uint256"
            },
            {
              "internalType": "address payable",
              "name": "seller",
              "type": "address"
            },
            {
              "internalType": "address payable",
              "name": "owner",
              "type": "address"
            },
            {
              "internalType": "uint256",
              "name": "price",
              "type": "uint256"
            },
            {
              "internalType": "bool",
              "name": "listed",
              "type": "bool"
            }
          ],
          "internalType": "struct Marketplace.NFT[]",
          "name": "",
          "type": "tuple[]"
        }
      ],
      "stateMutability": "view",
      "type": "function",
      "constant": true
    }
  ],
  "bytecode": "0x608060405266038d7ea4c6800060035534801561001b57600080fd5b50600160008190555033600460006101000a81548173ffffffffffffffffffffffffffffffffffffffff021916908373ffffffffffffffffffffffffffffffffffffffff160217905550611e71806100746000396000f3fe60806040526004361061007b5760003560e01c8063a82ba76f1161004e578063a82ba76f1461012c578063ad05f1b414610148578063b8fe6abe14610164578063c0ebc7531461018f5761007b565b8063012386f0146100805780631cd27232146100ab5780632b86ae38146100d6578063629cb2e414610101575b600080fd5b34801561008c57600080fd5b506100956101ab565b6040516100a291906116c9565b60405180910390f35b3480156100b757600080fd5b506100c0610413565b6040516100cd91906116c9565b60405180910390f35b3480156100e257600080fd5b506100eb6107b6565b6040516100f891906116fa565b60405180910390f35b34801561010d57600080fd5b506101166107bc565b60405161012391906116c9565b60405180910390f35b61014660048036038101906101419190611772565b610b26565b005b610162600480360381019061015d91906117b2565b610e7e565b005b34801561017057600080fd5b506101796111a8565b60405161018691906116fa565b60405180910390f35b6101a960048036038101906101a491906117b2565b6111b2565b005b606060006101b9600261140f565b905060006101c7600161140f565b826101d29190611834565b905060008167ffffffffffffffff8111156101f0576101ef611868565b5b60405190808252806020026020018201604052801561022957816020015b61021661148f565b81526020019060019003908161020e5790505b5090506000805b8481101561040857600560006001836102499190611897565b815260200190815260200160002060050160009054906101000a900460ff16156103f5576005600060018361027e9190611897565b81526020019081526020016000206040518060c00160405290816000820160009054906101000a900473ffffffffffffffffffffffffffffffffffffffff1673ffffffffffffffffffffffffffffffffffffffff1673ffffffffffffffffffffffffffffffffffffffff168152602001600182015481526020016002820160009054906101000a900473ffffffffffffffffffffffffffffffffffffffff1673ffffffffffffffffffffffffffffffffffffffff1673ffffffffffffffffffffffffffffffffffffffff1681526020016003820160009054906101000a900473ffffffffffffffffffffffffffffffffffffffff1673ffffffffffffffffffffffffffffffffffffffff1673ffffffffffffffffffffffffffffffffffffffff168152602001600482015481526020016005820160009054906101000a900460ff1615151515815250508383815181106103db576103da6118cb565b5b602002602001018190525081806103f1906118fa565b9250505b8080610400906118fa565b915050610230565b508194505050505090565b60606000610421600261140f565b90506000805b828110156104ff573373ffffffffffffffffffffffffffffffffffffffff16600560006001846104579190611897565b815260200190815260200160002060020160009054906101000a900473ffffffffffffffffffffffffffffffffffffffff1673ffffffffffffffffffffffffffffffffffffffff161480156104d85750600560006001836104b89190611897565b815260200190815260200160002060050160009054906101000a900460ff165b156104ec5781806104e8906118fa565b9250505b80806104f7906118fa565b915050610427565b5060008167ffffffffffffffff81111561051c5761051b611868565b5b60405190808252806020026020018201604052801561055557816020015b61054261148f565b81526020019060019003908161053a5790505b5090506000805b848110156107ab573373ffffffffffffffffffffffffffffffffffffffff166005600060018461058c9190611897565b815260200190815260200160002060020160009054906101000a900473ffffffffffffffffffffffffffffffffffffffff1673ffffffffffffffffffffffffffffffffffffffff1614801561060d5750600560006001836105ed9190611897565b815260200190815260200160002060050160009054906101000a900460ff165b1561079857600560006001836106239190611897565b81526020019081526020016000206040518060c00160405290816000820160009054906101000a900473ffffffffffffffffffffffffffffffffffffffff1673ffffffffffffffffffffffffffffffffffffffff1673ffffffffffffffffffffffffffffffffffffffff168152602001600182015481526020016002820160009054906101000a900473ffffffffffffffffffffffffffffffffffffffff1673ffffffffffffffffffffffffffffffffffffffff1673ffffffffffffffffffffffffffffffffffffffff1681526020016003820160009054906101000a900473ffffffffffffffffffffffffffffffffffffffff1673ffffffffffffffffffffffffffffffffffffffff1673ffffffffffffffffffffffffffffffffffffffff168152602001600482015481526020016005820160009054906101000a900460ff161515151581525050838380610779906118fa565b94508151811061078c5761078b6118cb565b5b60200260200101819052505b80806107a3906118fa565b91505061055c565b508194505050505090565b60035481565b606060006107ca600261140f565b90506000805b8281101561086f573373ffffffffffffffffffffffffffffffffffffffff16600560006001846108009190611897565b815260200190815260200160002060030160009054906101000a900473ffffffffffffffffffffffffffffffffffffffff1673ffffffffffffffffffffffffffffffffffffffff160361085c578180610858906118fa565b9250505b8080610867906118fa565b9150506107d0565b5060008167ffffffffffffffff81111561088c5761088b611868565b5b6040519080825280602002602001820160405280156108c557816020015b6108b261148f565b8152602001906001900390816108aa5790505b5090506000805b83811015610b1b573373ffffffffffffffffffffffffffffffffffffffff16600560006001846108fc9190611897565b815260200190815260200160002060020160009054906101000a900473ffffffffffffffffffffffffffffffffffffffff1673ffffffffffffffffffffffffffffffffffffffff1614801561097d57506005600060018361095d9190611897565b815260200190815260200160002060050160009054906101000a900460ff165b15610b0857600560006001836109939190611897565b81526020019081526020016000206040518060c00160405290816000820160009054906101000a900473ffffffffffffffffffffffffffffffffffffffff1673ffffffffffffffffffffffffffffffffffffffff1673ffffffffffffffffffffffffffffffffffffffff168152602001600182015481526020016002820160009054906101000a900473ffffffffffffffffffffffffffffffffffffffff1673ffffffffffffffffffffffffffffffffffffffff1673ffffffffffffffffffffffffffffffffffffffff1681526020016003820160009054906101000a900473ffffffffffffffffffffffffffffffffffffffff1673ffffffffffffffffffffffffffffffffffffffff1673ffffffffffffffffffffffffffffffffffffffff168152602001600482015481526020016005820160009054906101000a900460ff161515151581525050838380610ae9906118fa565b945081518110610afc57610afb6118cb565b5b60200260200101819052505b8080610b13906118fa565b9150506108cc565b508194505050505090565b600260005403610b6b576040517f08c379a0000000000000000000000000000000000000000000000000000000008152600401610b629061199f565b60405180910390fd5b600260008190555060006005600083815260200190815260200160002090508060040154341015610bd1576040517f08c379a0000000000000000000000000000000000000000000000000000000008152600401610bc890611a31565b60405180910390fd5b60003390508160020160009054906101000a900473ffffffffffffffffffffffffffffffffffffffff1673ffffffffffffffffffffffffffffffffffffffff166108fc349081150290604051600060405180830381858888f19350505050158015610c40573d6000803e3d6000fd5b508373ffffffffffffffffffffffffffffffffffffffff166323b872dd308385600101546040518463ffffffff1660e01b8152600401610c8293929190611abf565b600060405180830381600087803b158015610c9c57600080fd5b505af1158015610cb0573d6000803e3d6000fd5b505050506003548260020160009054906101000a900473ffffffffffffffffffffffffffffffffffffffff1673ffffffffffffffffffffffffffffffffffffffff16311015610d34576040517f08c379a0000000000000000000000000000000000000000000000000000000008152600401610d2b90611b42565b60405180910390fd5b600460009054906101000a900473ffffffffffffffffffffffffffffffffffffffff1673ffffffffffffffffffffffffffffffffffffffff166108fc6003549081150290604051600060405180830381858888f19350505050158015610d9e573d6000803e3d6000fd5b50808260030160006101000a81548173ffffffffffffffffffffffffffffffffffffffff021916908373ffffffffffffffffffffffffffffffffffffffff16021790555060008260050160006101000a81548160ff021916908315150217905550610e09600161141d565b7f16f1dbd97e6bf646d429ed186cce832f1f7fd9907814293b83181e9970ab7bd28483600101548460020160009054906101000a900473ffffffffffffffffffffffffffffffffffffffff168434604051610e68959493929190611b62565b60405180910390a1505060016000819055505050565b600260005403610ec3576040517f08c379a0000000000000000000000000000000000000000000000000000000008152600401610eba9061199f565b60405180910390fd5b600260008190555060008111610f0e576040517f08c379a0000000000000000000000000000000000000000000000000000000008152600401610f0590611c01565b60405180910390fd5b6003543414610f52576040517f08c379a0000000000000000000000000000000000000000000000000000000008152600401610f4990611c93565b60405180910390fd5b8273ffffffffffffffffffffffffffffffffffffffff166323b872dd3330856040518463ffffffff1660e01b8152600401610f8f93929190611cb3565b600060405180830381600087803b158015610fa957600080fd5b505af1158015610fbd573d6000803e3d6000fd5b50505050610fcb600261141d565b6040518060c001604052808473ffffffffffffffffffffffffffffffffffffffff1681526020018381526020013373ffffffffffffffffffffffffffffffffffffffff1681526020013073ffffffffffffffffffffffffffffffffffffffff168152602001828152602001600115158152506005600084815260200190815260200160002060008201518160000160006101000a81548173ffffffffffffffffffffffffffffffffffffffff021916908373ffffffffffffffffffffffffffffffffffffffff1602179055506020820151816001015560408201518160020160006101000a81548173ffffffffffffffffffffffffffffffffffffffff021916908373ffffffffffffffffffffffffffffffffffffffff16021790555060608201518160030160006101000a81548173ffffffffffffffffffffffffffffffffffffffff021916908373ffffffffffffffffffffffffffffffffffffffff1602179055506080820151816004015560a08201518160050160006101000a81548160ff0219169083151502179055509050507fa0c6c0d02d86fdacecbaa5fdf5894bab204e31a778250474108540733a9b8d198383333085604051611193959493929190611b62565b60405180910390a16001600081905550505050565b6000600354905090565b6002600054036111f7576040517f08c379a00000000000000000000000000000000000000000000000000000000081526004016111ee9061199f565b60405180910390fd5b600260008190555060008111611242576040517f08c379a000000000000000000000000000000000000000000000000000000000815260040161123990611c01565b60405180910390fd5b6003543414611286576040517f08c379a000000000000000000000000000000000000000000000000000000000815260040161127d90611d5c565b60405180910390fd5b8273ffffffffffffffffffffffffffffffffffffffff166323b872dd3330856040518463ffffffff1660e01b81526004016112c393929190611cb3565b600060405180830381600087803b1580156112dd57600080fd5b505af11580156112f1573d6000803e3d6000fd5b505050506000600560008481526020019081526020016000209050338160020160006101000a81548173ffffffffffffffffffffffffffffffffffffffff021916908373ffffffffffffffffffffffffffffffffffffffff160217905550308160030160006101000a81548173ffffffffffffffffffffffffffffffffffffffff021916908373ffffffffffffffffffffffffffffffffffffffff16021790555060018160050160006101000a81548160ff0219169083151502179055508181600401819055506113c26001611433565b7fa0c6c0d02d86fdacecbaa5fdf5894bab204e31a778250474108540733a9b8d1984843330866040516113f9959493929190611d7c565b60405180910390a1506001600081905550505050565b600081600001549050919050565b6001816000016000828254019250508190555050565b6000816000015490506000811161147f576040517f08c379a000000000000000000000000000000000000000000000000000000000815260040161147690611e1b565b60405180910390fd5b6001810382600001819055505050565b6040518060c00160405280600073ffffffffffffffffffffffffffffffffffffffff16815260200160008152602001600073ffffffffffffffffffffffffffffffffffffffff168152602001600073ffffffffffffffffffffffffffffffffffffffff168152602001600081526020016000151581525090565b600081519050919050565b600082825260208201905092915050565b6000819050602082019050919050565b600073ffffffffffffffffffffffffffffffffffffffff82169050919050565b600061156082611535565b9050919050565b61157081611555565b82525050565b6000819050919050565b61158981611576565b82525050565b600061159a82611535565b9050919050565b6115aa8161158f565b82525050565b60008115159050919050565b6115c5816115b0565b82525050565b60c0820160008201516115e16000850182611567565b5060208201516115f46020850182611580565b50604082015161160760408501826115a1565b50606082015161161a60608501826115a1565b50608082015161162d6080850182611580565b5060a082015161164060a08501826115bc565b50505050565b600061165283836115cb565b60c08301905092915050565b6000602082019050919050565b600061167682611509565b6116808185611514565b935061168b83611525565b8060005b838110156116bc5781516116a38882611646565b97506116ae8361165e565b92505060018101905061168f565b5085935050505092915050565b600060208201905081810360008301526116e3818461166b565b905092915050565b6116f481611576565b82525050565b600060208201905061170f60008301846116eb565b92915050565b600080fd5b61172381611555565b811461172e57600080fd5b50565b6000813590506117408161171a565b92915050565b61174f81611576565b811461175a57600080fd5b50565b60008135905061176c81611746565b92915050565b6000806040838503121561178957611788611715565b5b600061179785828601611731565b92505060206117a88582860161175d565b9150509250929050565b6000806000606084860312156117cb576117ca611715565b5b60006117d986828701611731565b93505060206117ea8682870161175d565b92505060406117fb8682870161175d565b9150509250925092565b7f4e487b7100000000000000000000000000000000000000000000000000000000600052601160045260246000fd5b600061183f82611576565b915061184a83611576565b925082820390508181111561186257611861611805565b5b92915050565b7f4e487b7100000000000000000000000000000000000000000000000000000000600052604160045260246000fd5b60006118a282611576565b91506118ad83611576565b92508282019050808211156118c5576118c4611805565b5b92915050565b7f4e487b7100000000000000000000000000000000000000000000000000000000600052603260045260246000fd5b600061190582611576565b91507fffffffffffffffffffffffffffffffffffffffffffffffffffffffffffffffff820361193757611936611805565b5b600182019050919050565b600082825260208201905092915050565b7f5265656e7472616e637947756172643a207265656e7472616e742063616c6c00600082015250565b6000611989601f83611942565b915061199482611953565b602082019050919050565b600060208201905081810360008301526119b88161197c565b9050919050565b7f4e6f7420656e6f75676820657468657220746f20636f7665722061736b696e6760008201527f2070726963650000000000000000000000000000000000000000000000000000602082015250565b6000611a1b602683611942565b9150611a26826119bf565b604082019050919050565b60006020820190508181036000830152611a4a81611a0e565b9050919050565b611a5a81611555565b82525050565b6000819050919050565b6000611a85611a80611a7b84611535565b611a60565b611535565b9050919050565b6000611a9782611a6a565b9050919050565b6000611aa982611a8c565b9050919050565b611ab981611a9e565b82525050565b6000606082019050611ad46000830186611a51565b611ae16020830185611ab0565b611aee60408301846116eb565b949350505050565b7f496e73756666696369656e742066756e64732061742073656c6c65722e000000600082015250565b6000611b2c601d83611942565b9150611b3782611af6565b602082019050919050565b60006020820190508181036000830152611b5b81611b1f565b9050919050565b600060a082019050611b776000830188611a51565b611b8460208301876116eb565b611b916040830186611ab0565b611b9e6060830185611ab0565b611bab60808301846116eb565b9695505050505050565b7f5072696365206d7573742062652061746c656173742031207765690000000000600082015250565b6000611beb601b83611942565b9150611bf682611bb5565b602082019050919050565b60006020820190508181036000830152611c1a81611bde565b9050919050565b7f4e6f7420656e6f7567687420657468657220666f72206c697374696e6720666560008201527f652e000000000000000000000000000000000000000000000000000000000000602082015250565b6000611c7d602283611942565b9150611c8882611c21565b604082019050919050565b60006020820190508181036000830152611cac81611c70565b9050919050565b6000606082019050611cc86000830186611a51565b611cd56020830185611a51565b611ce260408301846116eb565b949350505050565b7f4e6f7420656e6f75676820657468657220666f72206c697374696e672066656560008201527f2e00000000000000000000000000000000000000000000000000000000000000602082015250565b6000611d46602183611942565b9150611d5182611cea565b604082019050919050565b60006020820190508181036000830152611d7581611d39565b9050919050565b600060a082019050611d916000830188611a51565b611d9e60208301876116eb565b611dab6040830186611a51565b611db86060830185611a51565b611dc560808301846116eb565b9695505050505050565b7f436f756e7465723a2064656372656d656e74206f766572666c6f770000000000600082015250565b6000611e05601b83611942565b9150611e1082611dcf565b602082019050919050565b60006020820190508181036000830152611e3481611df8565b905091905056fea2646970667358221220929497c54ce0e8fa4093f9f2821e87d6ce1f74ed4aacde6aa20dfd32ae1178d564736f6c63430008110033",
  "immutableReferences": {},
  "source": "//SPDX-License-Identifier: MIT\r\npragma solidity >0.4.0 <0.9.0;\r\n\r\nimport \"@openzeppelin/contracts/utils/Counters.sol\";\r\nimport \"@openzeppelin/contracts/token/ERC721/ERC721.sol\";\r\nimport \"@openzeppelin/contracts/security/ReentrancyGuard.sol\";\r\n\r\n/// @title Marketplace smartcontract\r\n/// @author ddos_kas\r\n/// @dev don't use safeTransferFrom function for asset transfer ganache accounts will raise an error\r\n///     `VM Exception while processing transaction: revert ERC721: transfer to non ERC721Receiver implementer`\r\n///     because they get destroyed as soon as chain goes offline leaving assets locked.\r\ncontract Marketplace is ReentrancyGuard {\r\n    using Counters for Counters.Counter; // attach every function from library Counters to type Counters.Counter\r\n    Counters.Counter private _nftsSold; //variable to keep count of sold NFTs\r\n    Counters.Counter private _nftsCount; // variable to keep count of listed NFTs\r\n\r\n    uint256 public LISTING_FEE = 0.001 ether; //  taken from the seller and transferred to marketplace contract owner whenever a NFT is sold.\r\n    address payable private _marketOwner; // store the marketplace contract owner\r\n    mapping(uint256 => NFT) private _idToNFT; // mapping for a unique token id to struct\r\n\r\n    // NFT structure to store relevant information for an NFT listed in the marketplace\r\n    struct NFT {\r\n        address nftContract; // BoredPetsNFT smart contract address\r\n        uint256 tokenId; // unique token identifier for each NFT\r\n        address payable seller; // seller's wallet address which can receive ether.\r\n        address payable owner; // owner's wallet address which can receive ether.\r\n        uint256 price; // price for the NFT\r\n        bool listed; // flag to mark if the NFT is listed on the marketplace or not.\r\n    }\r\n\r\n    /// @notice emitted every time a NFT is listed on the marketplace.\r\n    /// @param nftContract BoredPetsNFT smart contract address.\r\n    /// @param tokenId unique ERC721 token identifier for each NFT.\r\n    /// @param seller seller's wallet address.\r\n    /// @param owner owner's wallet address.\r\n    /// @param price buy price for the NFT.\r\n    event NFTListed(\r\n        address nftContract,\r\n        uint256 tokenId,\r\n        address seller,\r\n        address owner,\r\n        uint256 price\r\n    );\r\n\r\n    ///@notice emitted every time a NFT is sold, see {Marketplace-NFTListed} for argument list details.\r\n    event NFTSold(\r\n        address nftContract,\r\n        uint256 tokenId,\r\n        address seller,\r\n        address owner,\r\n        uint256 price\r\n    );\r\n\r\n    constructor() {\r\n        _marketOwner = payable(msg.sender);\r\n    }\r\n\r\n    /// @notice this function is called when a user first mints and lists their NFT, this function here transfers ownership from the user over to the Marketplace contract.\r\n    function listNFT(\r\n        address _nftContract,\r\n        uint256 _tokenId,\r\n        uint256 _price\r\n    ) public payable nonReentrant {\r\n        //require tooken id to be unique\r\n        require(_price > 0, \"Price must be atleast 1 wei\");\r\n        require(msg.value == LISTING_FEE, \"Not enought ether for listing fee.\");\r\n        IERC721(_nftContract).transferFrom(msg.sender, address(this), _tokenId);\r\n\r\n        _nftsCount.increment();\r\n        _idToNFT[_tokenId] = NFT(\r\n            _nftContract,\r\n            _tokenId,\r\n            payable(msg.sender),\r\n            payable(address(this)),\r\n            _price,\r\n            true\r\n        );\r\n        emit NFTListed(\r\n            _nftContract,\r\n            _tokenId,\r\n            payable(msg.sender),\r\n            payable(address(this)),\r\n            _price\r\n        );\r\n    }\r\n\r\n    /// @notice this function is called when a user buys a NFT, the buyer becomes the new owner of the NFT,\r\n    ///         the token is transferred from marketplace contract over to the buyer.\r\n    function buyNFT(address _nftContract, uint256 _tokenId)\r\n        public\r\n        payable\r\n        nonReentrant\r\n    {\r\n        NFT storage nft = _idToNFT[_tokenId];\r\n        require(\r\n            msg.value >= nft.price,\r\n            \"Not enough ether to cover asking price\"\r\n        );\r\n        address payable buyer = payable(msg.sender);\r\n        payable(nft.seller).transfer(msg.value); //transfer ether to seller\r\n        IERC721(_nftContract).transferFrom(address(this), buyer, nft.tokenId);\r\n        //revert if there is no listing fee coverage ether in sellers account\r\n        require(\r\n            nft.seller.balance >= LISTING_FEE,\r\n            \"Insufficient funds at seller.\"\r\n        );\r\n        _marketOwner.transfer(LISTING_FEE); // transfer listing fee to marketplace contract from seller.\r\n        nft.owner = buyer;\r\n        nft.listed = false;\r\n\r\n        _nftsSold.increment();\r\n        emit NFTSold(_nftContract, nft.tokenId, nft.seller, buyer, msg.value);\r\n    }\r\n\r\n    /// @notice this function is called when a buyer who previously bought a NFT from the marketplace wishes to resell it\r\n    function relistNFT(\r\n        address _nftContract,\r\n        uint256 _tokenId,\r\n        uint256 _price\r\n    ) public payable nonReentrant {\r\n        require(_price > 0, \"Price must be atleast 1 wei\");\r\n        require(msg.value == LISTING_FEE, \"Not enough ether for listing fee.\");\r\n        IERC721(_nftContract).transferFrom(msg.sender, address(this), _tokenId);\r\n\r\n        NFT storage nft = _idToNFT[_tokenId];\r\n        nft.seller = payable(msg.sender);\r\n        nft.owner = payable(address(this));\r\n        nft.listed = true;\r\n        nft.price = _price;\r\n\r\n        _nftsSold.decrement();\r\n        emit NFTListed(\r\n            _nftContract,\r\n            _tokenId,\r\n            msg.sender,\r\n            address(this),\r\n            _price\r\n        );\r\n    }\r\n\r\n    //get listing fee\r\n    function getListingFee() public view returns (uint256) {\r\n        return LISTING_FEE;\r\n    }\r\n\r\n    //get listed NFTs from the marketplace\r\n    function getListedNFTs() public view returns (NFT[] memory) {\r\n        uint256 nftCount = _nftsCount.current();\r\n        uint256 unsoldNFTsCount = nftCount - _nftsSold.current();\r\n\r\n        NFT[] memory nfts = new NFT[](unsoldNFTsCount);\r\n        uint256 nftsIndex = 0;\r\n        for (uint256 i = 0; i < nftCount; i++) {\r\n            if (_idToNFT[i + 1].listed) {\r\n                nfts[nftsIndex] = _idToNFT[i + 1];\r\n                nftsIndex++;\r\n            }\r\n        }\r\n        return nfts;\r\n    }\r\n\r\n    //get NFTs from users account\r\n    function getMyNFTs() public view returns (NFT[] memory) {\r\n        uint256 nftCount = _nftsCount.current();\r\n        uint256 myNFTCount = 0;\r\n        for (uint256 i = 0; i < nftCount; i++) {\r\n            if (_idToNFT[i + 1].owner == msg.sender) myNFTCount++;\r\n        }\r\n\r\n        NFT[] memory nfts = new NFT[](myNFTCount);\r\n        uint256 nftIndex = 0;\r\n        for (uint256 i = 0; i < myNFTCount; i++) {\r\n            if (_idToNFT[i + 1].seller == msg.sender && _idToNFT[i + 1].listed)\r\n                nfts[nftIndex++] = _idToNFT[i + 1];\r\n        }\r\n        return nfts;\r\n    }\r\n\r\n    //get NFT's listed on Marketplace from user's account\r\n\r\n    function getMyListedNFTs() public view returns (NFT[] memory) {\r\n        uint256 nftCount = _nftsCount.current();\r\n        uint256 myListedNFTCount = 0;\r\n        for (uint256 i = 0; i < nftCount; i++) {\r\n            if (_idToNFT[i + 1].seller == msg.sender && _idToNFT[i + 1].listed)\r\n                myListedNFTCount++;\r\n        }\r\n\r\n        NFT[] memory nfts = new NFT[](myListedNFTCount);\r\n\r\n        uint256 nftIndex = 0;\r\n\r\n        for (uint256 i = 0; i < nftCount; i++) {\r\n            if (_idToNFT[i + 1].seller == msg.sender && _idToNFT[i + 1].listed)\r\n                nfts[nftIndex++] = _idToNFT[i + 1];\r\n        }\r\n\r\n        return nfts;\r\n    }\r\n}\r\n",
  "sourcePath": "E:\\github\\digital_assets_marketplace\\contracts\\Marketplace.sol",
  "compiler": {
    "name": "solc",
    "version": "0.8.17+commit.8df45f5f.Emscripten.clang"
  },
  "schemaVersion": "3.4.10",
  "updatedAt": "2022-11-13T10:53:40.495Z",
  "networkType": "ethereum",
  "devdoc": {
    "author": "ddos_kas",
    "details": "don't use safeTransferFrom function for asset transfer ganache accounts will raise an error     `VM Exception while processing transaction: revert ERC721: transfer to non ERC721Receiver implementer`     because they get destroyed as soon as chain goes offline leaving assets locked.",
    "events": {
      "NFTListed(address,uint256,address,address,uint256)": {
        "params": {
          "nftContract": "BoredPetsNFT smart contract address.",
          "owner": "owner's wallet address.",
          "price": "buy price for the NFT.",
          "seller": "seller's wallet address.",
          "tokenId": "unique ERC721 token identifier for each NFT."
        }
      }
    },
    "kind": "dev",
    "methods": {},
    "title": "Marketplace smartcontract",
    "version": 1
  },
  "userdoc": {
    "events": {
      "NFTListed(address,uint256,address,address,uint256)": {
        "notice": "emitted every time a NFT is listed on the marketplace."
      },
      "NFTSold(address,uint256,address,address,uint256)": {
        "notice": "emitted every time a NFT is sold, see {Marketplace-NFTListed} for argument list details."
      }
    },
    "kind": "user",
    "methods": {
      "buyNFT(address,uint256)": {
        "notice": "this function is called when a user buys a NFT, the buyer becomes the new owner of the NFT,         the token is transferred from marketplace contract over to the buyer."
      },
      "listNFT(address,uint256,uint256)": {
        "notice": "this function is called when a user first mints and lists their NFT, this function here transfers ownership from the user over to the Marketplace contract."
      },
      "relistNFT(address,uint256,uint256)": {
        "notice": "this function is called when a buyer who previously bought a NFT from the marketplace wishes to resell it"
      }
    },
    "version": 1
  }
}